:020000040800F2
:10000000002000209D0400089904000897040008BF
:1000100000000000000000000000000000000000E0
:10002000000000000000000000000000990400082B
:100030000000000000000000990400089904000876
:100040009704000897040008970400089704000824
:100050009704000897040008970400089704000814
:100060009704000897040008970400089704000804
:1000700097040008970400089704000897040008F4
:1000800097040008970400089704000897040008E4
:1000900097040008970400089704000897040008D4
:1000A00097040008970400089704000897040008C4
:1000B00097040008970400089704000897040008B4
:1000C00038B5051C9020C005012903D1402100F05E
:1000D000BBF902E0402100F0B5F99020C0052021D5
:1000E00000F0B2F990208021C005C90000F0ACF901
:1000F00008249020C005202100F0A6F90A23C0465C
:10010000013B002BFBD190206BB2C0058021002B5E
:1001100002DA00F097F901E000F096F96D00EDB217
:100120000A23C046013B002BFBD19020C0052021B3
:1001300000F088F90A23C046013B002BFBD1013CAB
:10014000002CD6D190208021C005C90000F07AF99A
:100150002823C046013B002BFBD138BD10B5030955
:10016000041C102018430121FFF7AAFF0F20204094
:100170000121FFF7A5FF10BDF0B5A44889B000F03C
:1001800053F9A34800F050F9A248012100220223AC
:1001900000F05DF99020C00501210022202300F02D
:1001A00056F99020C00501210022402300F04FF9AC
:1001B0009020C00501210022802300F048F9902002
:1001C0008023C005012100229B0000F040F990200F
:1001D0008023DB000022C005012100F038F99020C7
:1001E0008021C005890000F02FF990208021C005F2
:1001F000C90000F027F990208021C005890000F097
:1002000021F9854BC046013B002BFBD1902080217A
:10021000C005890000F018F9804BC046013B002B57
:10022000FBD190208021C005890000F00BF97B4BA9
:10023000C046013B002BFBD1E2200121FFF740FF2C
:10024000764BC046013B002BFBD1AE200121FFF7CE
:1002500037FFA6200121FFF733FFA0200121FFF780
:100260002FFF28200121FFF72BFFA2200121FFF7FC
:1002700027FFEE200121FFF723FFC8200121FFF710
:100280001FFF2F200121FFF71BFF25200121FFF772
:1002900017FF9020C005402100F0D6F89020C0053F
:1002A000202100F0D1F890208021C005C90000F085
:1002B000CBF85B4D10249020C005202100F0C4F83D
:1002C0000A23C046013B002BFBD190208021C005B2
:1002D0000D4202D000F0B6F801E000F0B5F86D0074
:1002E0000A23C046013B002BFBD19020C0052021F2
:1002F00000F0A8F80A23C046013B002BFBD1013CCB
:10030000002CD8D190208021C005C90000F09AF8B7
:100310002823C046013B002BFBD140200121FFF7E1
:10032000CFFEAF200121FFF7CBFE3C4DC046013D83
:10033000002DFBD1502040422843C0B20121FFF7DD
:10034000BFFE0020FFF70AFF80240020011C013CB3
:10035000FFF7B6FE002CF8D10135082DEAD168462A
:100360003049202200F0D8F8502040422043C0B24B
:100370000121FFF7A5FE012020408000FFF7EEFEDF
:1003800010260425FF200021013DFFF799FE002DD6
:10039000F8D104250020011C013DFFF791FE002D3E
:1003A000F8D1013E002EECD10134042CDCD15020D8
:1003B00040422043C0B20121FFF782FE01202040CD
:1003C0008000FFF7CBFE6E4608AF0025705D002170
:1003D0000135FFF775FE082DF8D10836BE42F4D17D
:1003E0000134082CE3D10B48022100F02BF80A4B12
:1003F000C046013B002BFBD10648022100F024F847
:10040000054BC046013B002BFBD1ECE792020000FC
:10041000910200000004004840420F00A086010045
:10042000158100009C050008054A43091F219B18FF
:10043000084001211A688140081C10431860704769
:100440000010024081617047090481617047F0B576
:1004500085B003910168C4688C4601930021019D19
:100460000D41EB070FD54D000326AE40F64367461E
:100470003740BC46039F63463440AF40161C1F43C1
:10048000AE40BC46344301311029E8D167460760CD
:10049000C46005B0F0BDFEE7704700000022144BB9
:1004A00014481549D31810188B4203D2016804323E
:1004B0001960F4E7114A934203D200221A60043310
:1004C000F8E70F4C0F4B9C4202D208CC9847F9E753
:1004D0000D4C0E4B9C4202D208CC9847F9E7FFF72F
:1004E0004BFE0B4C0B4B9C4202D208CC9847F9E7D1
:1004F00000000020BC0500080000002000000020D3
:10050000BC050008BC050008BC050008BC050008C7
:10051000BC050008BC050008F0B50F2A35D9031C3E
:100520000B439C0735D1161C103E36093501451981
:1005300010350C1C031C27681F6067685F60A76884
:100540009F60E7681034DF601033AB42F3D1731C57
:100550001B01C518C9180F231340032B1BD91C1FDF
:10056000A4080134A4000023CE58EE500433A34263
:10057000FAD1ED18C91803231A4005D00023CC5C2A
:10058000EC5401339342FAD1F0BD051C002AF5D199
:10059000FAE7051CF2E71A1CF8E7C04600304A4AA1
:1005A0004A327C00007F384444443800003C4242D8
:0C05B000422400000038444444387F001E
:040000050800049D4E
:00000001FF
